{
    "_format": "hh-sol-artifact-1",
    "contractName": "Raffle",
    "sourceName": "contracts/Raffle.sol",
    "abi": [
        {
            "inputs": [
                {
                    "internalType": "uint256",
                    "name": "entranceFee",
                    "type": "uint256"
                },
                {
                    "internalType": "uint256",
                    "name": "interval",
                    "type": "uint256"
                },
                {
                    "internalType": "address",
                    "name": "vrfCoordinatorV2",
                    "type": "address"
                },
                {
                    "internalType": "bytes32",
                    "name": "gasLane",
                    "type": "bytes32"
                },
                {
                    "internalType": "uint64",
                    "name": "subscriptionId",
                    "type": "uint64"
                },
                {
                    "internalType": "uint32",
                    "name": "callbackGasLimit",
                    "type": "uint32"
                }
            ],
            "stateMutability": "nonpayable",
            "type": "constructor"
        },
        {
            "inputs": [
                {
                    "internalType": "address",
                    "name": "have",
                    "type": "address"
                },
                {
                    "internalType": "address",
                    "name": "want",
                    "type": "address"
                }
            ],
            "name": "OnlyCoordinatorCanFulfill",
            "type": "error"
        },
        {
            "inputs": [],
            "name": "Raffle__EntranceFeeLow",
            "type": "error"
        },
        {
            "inputs": [],
            "name": "Raffle__RaffleNotOpen",
            "type": "error"
        },
        {
            "inputs": [],
            "name": "Raffle__TransferFailed",
            "type": "error"
        },
        {
            "inputs": [],
            "name": "Raffle__UpkeepNotNeeded",
            "type": "error"
        },
        {
            "anonymous": false,
            "inputs": [
                {
                    "indexed": true,
                    "internalType": "address",
                    "name": "player",
                    "type": "address"
                }
            ],
            "name": "RaffleEnter",
            "type": "event"
        },
        {
            "anonymous": false,
            "inputs": [
                {
                    "indexed": true,
                    "internalType": "uint256",
                    "name": "requestId",
                    "type": "uint256"
                }
            ],
            "name": "RequestedRaffleWinner",
            "type": "event"
        },
        {
            "anonymous": false,
            "inputs": [
                {
                    "indexed": true,
                    "internalType": "address",
                    "name": "recentWinner",
                    "type": "address"
                }
            ],
            "name": "WinnerPicked",
            "type": "event"
        },
        {
            "inputs": [],
            "name": "NUM_WORDS",
            "outputs": [
                {
                    "internalType": "uint32",
                    "name": "",
                    "type": "uint32"
                }
            ],
            "stateMutability": "view",
            "type": "function"
        },
        {
            "inputs": [],
            "name": "REQUEST_CONFIRMATIONS",
            "outputs": [
                {
                    "internalType": "uint16",
                    "name": "",
                    "type": "uint16"
                }
            ],
            "stateMutability": "view",
            "type": "function"
        },
        {
            "inputs": [
                {
                    "internalType": "bytes",
                    "name": "",
                    "type": "bytes"
                }
            ],
            "name": "checkUpkeep",
            "outputs": [
                {
                    "internalType": "bool",
                    "name": "upkeepNeeded",
                    "type": "bool"
                },
                {
                    "internalType": "bytes",
                    "name": "",
                    "type": "bytes"
                }
            ],
            "stateMutability": "view",
            "type": "function"
        },
        {
            "inputs": [],
            "name": "enterRaffle",
            "outputs": [],
            "stateMutability": "payable",
            "type": "function"
        },
        {
            "inputs": [],
            "name": "i_callbackGasLimit",
            "outputs": [
                {
                    "internalType": "uint32",
                    "name": "",
                    "type": "uint32"
                }
            ],
            "stateMutability": "view",
            "type": "function"
        },
        {
            "inputs": [],
            "name": "i_gasLane",
            "outputs": [
                {
                    "internalType": "bytes32",
                    "name": "",
                    "type": "bytes32"
                }
            ],
            "stateMutability": "view",
            "type": "function"
        },
        {
            "inputs": [],
            "name": "i_interval",
            "outputs": [
                {
                    "internalType": "uint256",
                    "name": "",
                    "type": "uint256"
                }
            ],
            "stateMutability": "view",
            "type": "function"
        },
        {
            "inputs": [],
            "name": "i_subscriptionId",
            "outputs": [
                {
                    "internalType": "uint64",
                    "name": "",
                    "type": "uint64"
                }
            ],
            "stateMutability": "view",
            "type": "function"
        },
        {
            "inputs": [],
            "name": "i_vrfCoordinatorV2",
            "outputs": [
                {
                    "internalType": "contract VRFCoordinatorV2Interface",
                    "name": "",
                    "type": "address"
                }
            ],
            "stateMutability": "view",
            "type": "function"
        },
        {
            "inputs": [
                {
                    "internalType": "bytes",
                    "name": "",
                    "type": "bytes"
                }
            ],
            "name": "performUpkeep",
            "outputs": [],
            "stateMutability": "nonpayable",
            "type": "function"
        },
        {
            "inputs": [
                {
                    "internalType": "uint256",
                    "name": "requestId",
                    "type": "uint256"
                },
                {
                    "internalType": "uint256[]",
                    "name": "randomWords",
                    "type": "uint256[]"
                }
            ],
            "name": "rawFulfillRandomWords",
            "outputs": [],
            "stateMutability": "nonpayable",
            "type": "function"
        },
        {
            "inputs": [],
            "name": "s_lastTimeStamp",
            "outputs": [
                {
                    "internalType": "uint256",
                    "name": "",
                    "type": "uint256"
                }
            ],
            "stateMutability": "view",
            "type": "function"
        },
        {
            "inputs": [],
            "name": "s_raffleState",
            "outputs": [
                {
                    "internalType": "enum Raffle.RaffleState",
                    "name": "",
                    "type": "uint8"
                }
            ],
            "stateMutability": "view",
            "type": "function"
        },
        {
            "inputs": [],
            "name": "s_recentWinner",
            "outputs": [
                {
                    "internalType": "address",
                    "name": "",
                    "type": "address"
                }
            ],
            "stateMutability": "view",
            "type": "function"
        }
    ],
    "bytecode": "0x6101206040523480156200001257600080fd5b506040516200181238038062001812833981810160405281019062000038919062000186565b838073ffffffffffffffffffffffffffffffffffffffff1660808173ffffffffffffffffffffffffffffffffffffffff1660601b81525050508560a081815250508460c08181525050426001819055508373ffffffffffffffffffffffffffffffffffffffff1660e08173ffffffffffffffffffffffffffffffffffffffff1660601b815250508260048190555081600560006101000a81548167ffffffffffffffff021916908367ffffffffffffffff1602179055508063ffffffff166101008163ffffffff1660e01b8152505050505050505062000315565b600081519050620001248162000293565b92915050565b6000815190506200013b81620002ad565b92915050565b6000815190506200015281620002c7565b92915050565b6000815190506200016981620002e1565b92915050565b6000815190506200018081620002fb565b92915050565b60008060008060008060c08789031215620001a657620001a56200028e565b5b6000620001b689828a0162000141565b9650506020620001c989828a0162000141565b9550506040620001dc89828a0162000113565b9450506060620001ef89828a016200012a565b93505060806200020289828a016200016f565b92505060a06200021589828a0162000158565b9150509295509295509295565b60006200022f8262000240565b9050919050565b6000819050919050565b600073ffffffffffffffffffffffffffffffffffffffff82169050919050565b6000819050919050565b600063ffffffff82169050919050565b600067ffffffffffffffff82169050919050565b600080fd5b6200029e8162000222565b8114620002aa57600080fd5b50565b620002b88162000236565b8114620002c457600080fd5b50565b620002d28162000260565b8114620002de57600080fd5b50565b620002ec816200026a565b8114620002f857600080fd5b50565b62000306816200027a565b81146200031257600080fd5b50565b60805160601c60a05160c05160e05160601c6101005160e01c6114936200037f6000396000818161063701526108910152600081816105df015261085c0152600081816107200152610784015260006103ec01526000818161032c015261038001526114936000f3fe6080604052600436106100dd5760003560e01c80636e04ff0d1161007f5780638e879c8a116100595780638e879c8a1461027e578063a781cbb6146102a9578063cc45483f146102d4578063d757d027146102ff576100dd565b80636e04ff0d146101ea57806372cf6e34146102285780638638b0c614610253576100dd565b80634585e33b116100bb5780634585e33b14610140578063470cdf971461016957806367f082b0146101945780636919207d146101bf576100dd565b80631fe543e3146100e25780632cfcc5391461010b5780633485404314610115575b600080fd5b3480156100ee57600080fd5b5061010960048036038101906101049190610ddd565b61032a565b005b6101136103ea565b005b34801561012157600080fd5b5061012a610557565b6040516101379190611064565b60405180910390f35b34801561014c57600080fd5b5061016760048036038101906101629190610d1a565b61055d565b005b34801561017557600080fd5b5061017e6106ff565b60405161018b919061109a565b60405180910390f35b3480156101a057600080fd5b506101a9610719565b6040516101b69190611049565b60405180910390f35b3480156101cb57600080fd5b506101d461071e565b6040516101e19190611064565b60405180910390f35b3480156101f657600080fd5b50610211600480360381019061020c9190610d67565b610742565b60405161021f929190610f75565b60405180910390f35b34801561023457600080fd5b5061023d610829565b60405161024a919061107f565b60405180910390f35b34801561025f57600080fd5b5061026861082e565b6040516102759190610f31565b60405180910390f35b34801561028a57600080fd5b50610293610854565b6040516102a09190610fa5565b60405180910390f35b3480156102b557600080fd5b506102be61085a565b6040516102cb9190611013565b60405180910390f35b3480156102e057600080fd5b506102e961087e565b6040516102f6919061102e565b60405180910390f35b34801561030b57600080fd5b5061031461088f565b604051610321919061107f565b60405180910390f35b7f000000000000000000000000000000000000000000000000000000000000000073ffffffffffffffffffffffffffffffffffffffff163373ffffffffffffffffffffffffffffffffffffffff16146103dc57337f00000000000000000000000000000000000000000000000000000000000000006040517f1cf993f40000000000000000000000000000000000000000000000000000000081526004016103d3929190610f4c565b60405180910390fd5b6103e682826108b3565b5050565b7f0000000000000000000000000000000000000000000000000000000000000000341015610444576040517f93b8c66700000000000000000000000000000000000000000000000000000000815260040160405180910390fd5b6000600181111561045857610457611373565b5b60008054906101000a900460ff16600181111561047857610477611373565b5b146104af576040517fd24a271400000000000000000000000000000000000000000000000000000000815260040160405180910390fd5b6002339080600181540180825580915050600190039060005260206000200160009091909190916101000a81548173ffffffffffffffffffffffffffffffffffffffff021916908373ffffffffffffffffffffffffffffffffffffffff1602179055503373ffffffffffffffffffffffffffffffffffffffff167f0805e1d667bddb8a95f0f09880cf94f403fb596ce79928d9f29b74203ba284d460405160405180910390a2565b60015481565b600061057760405180602001604052806000815250610742565b509050806105b1576040517f8e4bc81700000000000000000000000000000000000000000000000000000000815260040160405180910390fd5b60016000806101000a81548160ff021916908360018111156105d6576105d5611373565b5b021790555060007f000000000000000000000000000000000000000000000000000000000000000073ffffffffffffffffffffffffffffffffffffffff16635d3b1d30600454600560009054906101000a900467ffffffffffffffff1660037f000000000000000000000000000000000000000000000000000000000000000060016040518663ffffffff1660e01b8152600401610678959493929190610fc0565b602060405180830381600087803b15801561069257600080fd5b505af11580156106a6573d6000803e3d6000fd5b505050506040513d601f19601f820116820180604052508101906106ca9190610db0565b9050807fcd6e45c8998311cab7e9d4385596cac867e20a0587194b954fa3a731c93ce78b60405160405180910390a250505050565b600560009054906101000a900467ffffffffffffffff1681565b600381565b7f000000000000000000000000000000000000000000000000000000000000000081565b6000606060008060009054906101000a900460ff16600181111561076957610768611373565b5b6000600181111561077d5761077c611373565b5b14905060007f0000000000000000000000000000000000000000000000000000000000000000600154426107b1919061115e565b119050600080471190506000806002805490501190508380156107d15750825b80156107da5750815b80156107e35750805b9550856040518060400160405280600381526020017f30783000000000000000000000000000000000000000000000000000000000008152509550955050505050915091565b600181565b600360009054906101000a900473ffffffffffffffffffffffffffffffffffffffff1681565b60045481565b7f000000000000000000000000000000000000000000000000000000000000000081565b60008054906101000a900460ff1681565b7f000000000000000000000000000000000000000000000000000000000000000081565b6000600280549050826000815181106108cf576108ce6113a2565b5b60200260200101516108e191906112e4565b90506000600282815481106108f9576108f86113a2565b5b9060005260206000200160009054906101000a900473ffffffffffffffffffffffffffffffffffffffff16905080600360006101000a81548173ffffffffffffffffffffffffffffffffffffffff021916908373ffffffffffffffffffffffffffffffffffffffff160217905550600067ffffffffffffffff811115610982576109816113d1565b5b6040519080825280602002602001820160405280156109b05781602001602082028036833780820191505090505b50600290805190602001906109c6929190610ae5565b5060008060006101000a81548160ff021916908360018111156109ec576109eb611373565b5b02179055504260018190555060008173ffffffffffffffffffffffffffffffffffffffff1647604051610a1e90610f1c565b60006040518083038185875af1925050503d8060008114610a5b576040519150601f19603f3d011682016040523d82523d6000602084013e610a60565b606091505b5050905080610a9b576040517fa1d04b3900000000000000000000000000000000000000000000000000000000815260040160405180910390fd5b8173ffffffffffffffffffffffffffffffffffffffff167f5b690ec4a06fe979403046eaeea5b3ce38524683c3001f662c8b5a829632f7df60405160405180910390a25050505050565b828054828255906000526020600020908101928215610b5e579160200282015b82811115610b5d5782518260006101000a81548173ffffffffffffffffffffffffffffffffffffffff021916908373ffffffffffffffffffffffffffffffffffffffff16021790555091602001919060010190610b05565b5b509050610b6b9190610b6f565b5090565b5b80821115610b88576000816000905550600101610b70565b5090565b6000610b9f610b9a846110da565b6110b5565b90508083825260208201905082856020860282011115610bc257610bc161140a565b5b60005b85811015610bf25781610bd88882610cf0565b845260208401935060208301925050600181019050610bc5565b5050509392505050565b6000610c0f610c0a84611106565b6110b5565b905082815260208101848484011115610c2b57610c2a61140f565b5b610c36848285611271565b509392505050565b600082601f830112610c5357610c52611405565b5b8135610c63848260208601610b8c565b91505092915050565b60008083601f840112610c8257610c81611405565b5b8235905067ffffffffffffffff811115610c9f57610c9e611400565b5b602083019150836001820283011115610cbb57610cba61140a565b5b9250929050565b600082601f830112610cd757610cd6611405565b5b8135610ce7848260208601610bfc565b91505092915050565b600081359050610cff81611446565b92915050565b600081519050610d1481611446565b92915050565b60008060208385031215610d3157610d30611419565b5b600083013567ffffffffffffffff811115610d4f57610d4e611414565b5b610d5b85828601610c6c565b92509250509250929050565b600060208284031215610d7d57610d7c611419565b5b600082013567ffffffffffffffff811115610d9b57610d9a611414565b5b610da784828501610cc2565b91505092915050565b600060208284031215610dc657610dc5611419565b5b6000610dd484828501610d05565b91505092915050565b60008060408385031215610df457610df3611419565b5b6000610e0285828601610cf0565b925050602083013567ffffffffffffffff811115610e2357610e22611414565b5b610e2f85828601610c3e565b9150509250929050565b610e4281611192565b82525050565b610e51816111a4565b82525050565b610e60816111b0565b82525050565b6000610e7182611137565b610e7b8185611142565b9350610e8b818560208601611280565b610e948161141e565b840191505092915050565b610ea881611229565b82525050565b610eb78161123b565b82525050565b6000610eca600083611153565b9150610ed58261142f565b600082019050919050565b610ee9816111cd565b82525050565b610ef8816111fb565b82525050565b610f0781611205565b82525050565b610f1681611215565b82525050565b6000610f2782610ebd565b9150819050919050565b6000602082019050610f466000830184610e39565b92915050565b6000604082019050610f616000830185610e39565b610f6e6020830184610e39565b9392505050565b6000604082019050610f8a6000830185610e48565b8181036020830152610f9c8184610e66565b90509392505050565b6000602082019050610fba6000830184610e57565b92915050565b600060a082019050610fd56000830188610e57565b610fe26020830187610f0d565b610fef6040830186610ee0565b610ffc6060830185610efe565b6110096080830184610efe565b9695505050505050565b60006020820190506110286000830184610e9f565b92915050565b60006020820190506110436000830184610eae565b92915050565b600060208201905061105e6000830184610ee0565b92915050565b60006020820190506110796000830184610eef565b92915050565b60006020820190506110946000830184610efe565b92915050565b60006020820190506110af6000830184610f0d565b92915050565b60006110bf6110d0565b90506110cb82826112b3565b919050565b6000604051905090565b600067ffffffffffffffff8211156110f5576110f46113d1565b5b602082029050602081019050919050565b600067ffffffffffffffff821115611121576111206113d1565b5b61112a8261141e565b9050602081019050919050565b600081519050919050565b600082825260208201905092915050565b600081905092915050565b6000611169826111fb565b9150611174836111fb565b92508282101561118757611186611315565b5b828203905092915050565b600061119d826111db565b9050919050565b60008115159050919050565b6000819050919050565b60008190506111c882611432565b919050565b600061ffff82169050919050565b600073ffffffffffffffffffffffffffffffffffffffff82169050919050565b6000819050919050565b600063ffffffff82169050919050565b600067ffffffffffffffff82169050919050565b60006112348261124d565b9050919050565b6000611246826111ba565b9050919050565b60006112588261125f565b9050919050565b600061126a826111db565b9050919050565b82818337600083830152505050565b60005b8381101561129e578082015181840152602081019050611283565b838111156112ad576000848401525b50505050565b6112bc8261141e565b810181811067ffffffffffffffff821117156112db576112da6113d1565b5b80604052505050565b60006112ef826111fb565b91506112fa836111fb565b92508261130a57611309611344565b5b828206905092915050565b7f4e487b7100000000000000000000000000000000000000000000000000000000600052601160045260246000fd5b7f4e487b7100000000000000000000000000000000000000000000000000000000600052601260045260246000fd5b7f4e487b7100000000000000000000000000000000000000000000000000000000600052602160045260246000fd5b7f4e487b7100000000000000000000000000000000000000000000000000000000600052603260045260246000fd5b7f4e487b7100000000000000000000000000000000000000000000000000000000600052604160045260246000fd5b600080fd5b600080fd5b600080fd5b600080fd5b600080fd5b600080fd5b6000601f19601f8301169050919050565b50565b6002811061144357611442611373565b5b50565b61144f816111fb565b811461145a57600080fd5b5056fea2646970667358221220c360d22705b4f89f5ab263cd47bff592d0bf41b6ae48cbbe72b869592b009dfa64736f6c63430008070033",
    "linkReferences": {},
    "deployedLinkReferences": {}
}